{
  "_format": "hh-sol-artifact-1",
  "contractName": "CrowdFunding",
  "sourceName": "contracts/Crowdfunding.sol",
  "abi": [
    {
      "anonymous": false,
      "inputs": [
        {
          "indexed": false,
          "internalType": "uint256",
          "name": "campaignId",
          "type": "uint256"
        },
        {
          "indexed": false,
          "internalType": "address",
          "name": "owner",
          "type": "address"
        },
        {
          "indexed": false,
          "internalType": "string",
          "name": "title",
          "type": "string"
        },
        {
          "indexed": false,
          "internalType": "uint256",
          "name": "target",
          "type": "uint256"
        },
        {
          "indexed": false,
          "internalType": "uint256",
          "name": "deadline",
          "type": "uint256"
        }
      ],
      "name": "CampaignCreated",
      "type": "event"
    },
    {
      "inputs": [
        {
          "internalType": "uint256",
          "name": "",
          "type": "uint256"
        }
      ],
      "name": "campaigns",
      "outputs": [
        {
          "internalType": "address",
          "name": "owner",
          "type": "address"
        },
        {
          "internalType": "string",
          "name": "title",
          "type": "string"
        },
        {
          "internalType": "string",
          "name": "description",
          "type": "string"
        },
        {
          "internalType": "uint256",
          "name": "target",
          "type": "uint256"
        },
        {
          "internalType": "uint256",
          "name": "deadline",
          "type": "uint256"
        },
        {
          "internalType": "uint256",
          "name": "amountCollected",
          "type": "uint256"
        },
        {
          "internalType": "string",
          "name": "image",
          "type": "string"
        }
      ],
      "stateMutability": "view",
      "type": "function"
    },
    {
      "inputs": [
        {
          "internalType": "address",
          "name": "_owner",
          "type": "address"
        },
        {
          "internalType": "string",
          "name": "_title",
          "type": "string"
        },
        {
          "internalType": "string",
          "name": "_description",
          "type": "string"
        },
        {
          "internalType": "uint256",
          "name": "_target",
          "type": "uint256"
        },
        {
          "internalType": "uint256",
          "name": "_deadline",
          "type": "uint256"
        },
        {
          "internalType": "string",
          "name": "_image",
          "type": "string"
        }
      ],
      "name": "createCampaign",
      "outputs": [
        {
          "internalType": "uint256",
          "name": "",
          "type": "uint256"
        }
      ],
      "stateMutability": "nonpayable",
      "type": "function"
    },
    {
      "inputs": [
        {
          "internalType": "uint256",
          "name": "_id",
          "type": "uint256"
        }
      ],
      "name": "donateToCampaign",
      "outputs": [],
      "stateMutability": "payable",
      "type": "function"
    },
    {
      "inputs": [],
      "name": "getCampaigns",
      "outputs": [
        {
          "components": [
            {
              "internalType": "address",
              "name": "owner",
              "type": "address"
            },
            {
              "internalType": "string",
              "name": "title",
              "type": "string"
            },
            {
              "internalType": "string",
              "name": "description",
              "type": "string"
            },
            {
              "internalType": "uint256",
              "name": "target",
              "type": "uint256"
            },
            {
              "internalType": "uint256",
              "name": "deadline",
              "type": "uint256"
            },
            {
              "internalType": "uint256",
              "name": "amountCollected",
              "type": "uint256"
            },
            {
              "internalType": "string",
              "name": "image",
              "type": "string"
            },
            {
              "internalType": "address[]",
              "name": "donators",
              "type": "address[]"
            },
            {
              "internalType": "uint256[]",
              "name": "donations",
              "type": "uint256[]"
            }
          ],
          "internalType": "struct CrowdFunding.Campaign[]",
          "name": "",
          "type": "tuple[]"
        }
      ],
      "stateMutability": "view",
      "type": "function"
    },
    {
      "inputs": [
        {
          "internalType": "uint256",
          "name": "_id",
          "type": "uint256"
        }
      ],
      "name": "getDonators",
      "outputs": [
        {
          "internalType": "address[]",
          "name": "",
          "type": "address[]"
        },
        {
          "internalType": "uint256[]",
          "name": "",
          "type": "uint256[]"
        }
      ],
      "stateMutability": "view",
      "type": "function"
    },
    {
      "inputs": [],
      "name": "numberOfCampaigns",
      "outputs": [
        {
          "internalType": "uint256",
          "name": "",
          "type": "uint256"
        }
      ],
      "stateMutability": "view",
      "type": "function"
    }
  ],
  "bytecode": "0x60806040526000600155348015601457600080fd5b50611b90806100246000396000f3fe6080604052600436106100555760003560e01c806307ca140d1461005a5780630fa91fa914610085578063141961bc146100c357806342a4fda8146101065780639943e3a114610122578063a6b036331461015f575b600080fd5b34801561006657600080fd5b5061006f61018a565b60405161007c9190610d1e565b60405180910390f35b34801561009157600080fd5b506100ac60048036038101906100a79190610d79565b610190565b6040516100ba929190610f54565b60405180910390f35b3480156100cf57600080fd5b506100ea60048036038101906100e59190610d79565b6102a0565b6040516100fd979695949392919061102a565b60405180910390f35b610120600480360381019061011b9190610d79565b61049a565b005b34801561012e57600080fd5b506101496004803603810190610144919061120f565b6105fa565b6040516101569190610d1e565b60405180910390f35b34801561016b57600080fd5b506101746107e7565b60405161018191906115bb565b60405180910390f35b60015481565b6060806000808481526020019081526020016000206007016000808581526020019081526020016000206008018180548060200260200160405190810160405280929190818152602001828054801561023e57602002820191906000526020600020905b8160009054906101000a900473ffffffffffffffffffffffffffffffffffffffff1673ffffffffffffffffffffffffffffffffffffffff16815260200190600101908083116101f4575b505050505091508080548060200260200160405190810160405280929190818152602001828054801561029057602002820191906000526020600020905b81548152602001906001019080831161027c575b5050505050905091509150915091565b60006020528060005260406000206000915090508060000160009054906101000a900473ffffffffffffffffffffffffffffffffffffffff16908060010180546102e99061160c565b80601f01602080910402602001604051908101604052809291908181526020018280546103159061160c565b80156103625780601f1061033757610100808354040283529160200191610362565b820191906000526020600020905b81548152906001019060200180831161034557829003601f168201915b5050505050908060020180546103779061160c565b80601f01602080910402602001604051908101604052809291908181526020018280546103a39061160c565b80156103f05780601f106103c5576101008083540402835291602001916103f0565b820191906000526020600020905b8154815290600101906020018083116103d357829003601f168201915b5050505050908060030154908060040154908060050154908060060180546104179061160c565b80601f01602080910402602001604051908101604052809291908181526020018280546104439061160c565b80156104905780601f1061046557610100808354040283529160200191610490565b820191906000526020600020905b81548152906001019060200180831161047357829003601f168201915b5050505050905087565b60003490506000806000848152602001908152602001600020905080600701339080600181540180825580915050600190039060005260206000200160009091909190916101000a81548173ffffffffffffffffffffffffffffffffffffffff021916908373ffffffffffffffffffffffffffffffffffffffff1602179055508060080182908060018154018082558091505060019003906000526020600020016000909190919091505560008160000160009054906101000a900473ffffffffffffffffffffffffffffffffffffffff1673ffffffffffffffffffffffffffffffffffffffff168360405161058f9061166e565b60006040518083038185875af1925050503d80600081146105cc576040519150601f19603f3d011682016040523d82523d6000602084013e6105d1565b606091505b5050905080156105f4578282600501546105eb91906116b2565b82600501819055505b50505050565b600080600080600154815260200190815260200160002090506106526040518060400160405280601881526020017f43757272656e7420426c6f636b2054696d657374616d703a000000000000000081525042610bb7565b6106916040518060400160405280601281526020017f50726f766964656420446561646c696e653a000000000000000000000000000081525085610bb7565b4284116106d3576040517f08c379a00000000000000000000000000000000000000000000000000000000081526004016106ca90611758565b60405180910390fd5b878160000160006101000a81548173ffffffffffffffffffffffffffffffffffffffff021916908373ffffffffffffffffffffffffffffffffffffffff160217905550868160010190816107279190611924565b50858160020190816107399190611924565b5084816003018190555083816004018190555060008160050181905550828160060190816107679190611924565b506001600081548092919061077b906119f6565b91905055507fdc26653af5b99b2da33e2ad69ee6600d9aeccc82b034501db4338309615ca238600180546107af9190611a3e565b898988886040516107c4959493929190611a72565b60405180910390a1600180546107da9190611a3e565b9150509695505050505050565b6060600060015467ffffffffffffffff811115610807576108066110e4565b5b60405190808252806020026020018201604052801561084057816020015b61082d610c99565b8152602001906001900390816108255790505b50905060005b600154811015610baf576000806000838152602001908152602001600020905080604051806101200160405290816000820160009054906101000a900473ffffffffffffffffffffffffffffffffffffffff1673ffffffffffffffffffffffffffffffffffffffff1673ffffffffffffffffffffffffffffffffffffffff1681526020016001820180546108d99061160c565b80601f01602080910402602001604051908101604052809291908181526020018280546109059061160c565b80156109525780601f1061092757610100808354040283529160200191610952565b820191906000526020600020905b81548152906001019060200180831161093557829003601f168201915b5050505050815260200160028201805461096b9061160c565b80601f01602080910402602001604051908101604052809291908181526020018280546109979061160c565b80156109e45780601f106109b9576101008083540402835291602001916109e4565b820191906000526020600020905b8154815290600101906020018083116109c757829003601f168201915b50505050508152602001600382015481526020016004820154815260200160058201548152602001600682018054610a1b9061160c565b80601f0160208091040260200160405190810160405280929190818152602001828054610a479061160c565b8015610a945780601f10610a6957610100808354040283529160200191610a94565b820191906000526020600020905b815481529060010190602001808311610a7757829003601f168201915b5050505050815260200160078201805480602002602001604051908101604052809291908181526020018280548015610b2257602002820191906000526020600020905b8160009054906101000a900473ffffffffffffffffffffffffffffffffffffffff1673ffffffffffffffffffffffffffffffffffffffff1681526020019060010190808311610ad8575b5050505050815260200160088201805480602002602001604051908101604052809291908181526020018280548015610b7a57602002820191906000526020600020905b815481526020019060010190808311610b66575b505050505081525050838381518110610b9657610b95611acc565b5b6020026020010181905250508080600101915050610846565b508091505090565b610c4f8282604051602401610bcd929190611afb565b6040516020818303038152906040527fb60e72cc000000000000000000000000000000000000000000000000000000007bffffffffffffffffffffffffffffffffffffffffffffffffffffffff19166020820180517bffffffffffffffffffffffffffffffffffffffffffffffffffffffff8381831617835250505050610c53565b5050565b610c6a81610c62610c6d610c8e565b63ffffffff16565b50565b60006a636f6e736f6c652e6c6f679050600080835160208501845afa505050565b610cfb819050919050565b604051806101200160405280600073ffffffffffffffffffffffffffffffffffffffff16815260200160608152602001606081526020016000815260200160008152602001600081526020016060815260200160608152602001606081525090565b610d03611b2b565b565b6000819050919050565b610d1881610d05565b82525050565b6000602082019050610d336000830184610d0f565b92915050565b6000604051905090565b600080fd5b600080fd5b610d5681610d05565b8114610d6157600080fd5b50565b600081359050610d7381610d4d565b92915050565b600060208284031215610d8f57610d8e610d43565b5b6000610d9d84828501610d64565b91505092915050565b600081519050919050565b600082825260208201905092915050565b6000819050602082019050919050565b600073ffffffffffffffffffffffffffffffffffffffff82169050919050565b6000610dfd82610dd2565b9050919050565b610e0d81610df2565b82525050565b6000610e1f8383610e04565b60208301905092915050565b6000602082019050919050565b6000610e4382610da6565b610e4d8185610db1565b9350610e5883610dc2565b8060005b83811015610e89578151610e708882610e13565b9750610e7b83610e2b565b925050600181019050610e5c565b5085935050505092915050565b600081519050919050565b600082825260208201905092915050565b6000819050602082019050919050565b610ecb81610d05565b82525050565b6000610edd8383610ec2565b60208301905092915050565b6000602082019050919050565b6000610f0182610e96565b610f0b8185610ea1565b9350610f1683610eb2565b8060005b83811015610f47578151610f2e8882610ed1565b9750610f3983610ee9565b925050600181019050610f1a565b5085935050505092915050565b60006040820190508181036000830152610f6e8185610e38565b90508181036020830152610f828184610ef6565b90509392505050565b610f9481610df2565b82525050565b600081519050919050565b600082825260208201905092915050565b60005b83811015610fd4578082015181840152602081019050610fb9565b60008484015250505050565b6000601f19601f8301169050919050565b6000610ffc82610f9a565b6110068185610fa5565b9350611016818560208601610fb6565b61101f81610fe0565b840191505092915050565b600060e08201905061103f600083018a610f8b565b81810360208301526110518189610ff1565b905081810360408301526110658188610ff1565b90506110746060830187610d0f565b6110816080830186610d0f565b61108e60a0830185610d0f565b81810360c08301526110a08184610ff1565b905098975050505050505050565b6110b781610df2565b81146110c257600080fd5b50565b6000813590506110d4816110ae565b92915050565b600080fd5b600080fd5b7f4e487b7100000000000000000000000000000000000000000000000000000000600052604160045260246000fd5b61111c82610fe0565b810181811067ffffffffffffffff8211171561113b5761113a6110e4565b5b80604052505050565b600061114e610d39565b905061115a8282611113565b919050565b600067ffffffffffffffff82111561117a576111796110e4565b5b61118382610fe0565b9050602081019050919050565b82818337600083830152505050565b60006111b26111ad8461115f565b611144565b9050828152602081018484840111156111ce576111cd6110df565b5b6111d9848285611190565b509392505050565b600082601f8301126111f6576111f56110da565b5b813561120684826020860161119f565b91505092915050565b60008060008060008060c0878903121561122c5761122b610d43565b5b600061123a89828a016110c5565b965050602087013567ffffffffffffffff81111561125b5761125a610d48565b5b61126789828a016111e1565b955050604087013567ffffffffffffffff81111561128857611287610d48565b5b61129489828a016111e1565b94505060606112a589828a01610d64565b93505060806112b689828a01610d64565b92505060a087013567ffffffffffffffff8111156112d7576112d6610d48565b5b6112e389828a016111e1565b9150509295509295509295565b600081519050919050565b600082825260208201905092915050565b6000819050602082019050919050565b600082825260208201905092915050565b600061133882610f9a565b611342818561131c565b9350611352818560208601610fb6565b61135b81610fe0565b840191505092915050565b600082825260208201905092915050565b600061138282610da6565b61138c8185611366565b935061139783610dc2565b8060005b838110156113c85781516113af8882610e13565b97506113ba83610e2b565b92505060018101905061139b565b5085935050505092915050565b600082825260208201905092915050565b60006113f182610e96565b6113fb81856113d5565b935061140683610eb2565b8060005b8381101561143757815161141e8882610ed1565b975061142983610ee9565b92505060018101905061140a565b5085935050505092915050565b60006101208301600083015161145d6000860182610e04565b5060208301518482036020860152611475828261132d565b9150506040830151848203604086015261148f828261132d565b91505060608301516114a46060860182610ec2565b5060808301516114b76080860182610ec2565b5060a08301516114ca60a0860182610ec2565b5060c083015184820360c08601526114e2828261132d565b91505060e083015184820360e08601526114fc8282611377565b91505061010083015184820361010086015261151882826113e6565b9150508091505092915050565b60006115318383611444565b905092915050565b6000602082019050919050565b6000611551826112f0565b61155b81856112fb565b93508360208202850161156d8561130c565b8060005b858110156115a9578484038952815161158a8582611525565b945061159583611539565b925060208a01995050600181019050611571565b50829750879550505050505092915050565b600060208201905081810360008301526115d58184611546565b905092915050565b7f4e487b7100000000000000000000000000000000000000000000000000000000600052602260045260246000fd5b6000600282049050600182168061162457607f821691505b602082108103611637576116366115dd565b5b50919050565b600081905092915050565b50565b600061165860008361163d565b915061166382611648565b600082019050919050565b60006116798261164b565b9150819050919050565b7f4e487b7100000000000000000000000000000000000000000000000000000000600052601160045260246000fd5b60006116bd82610d05565b91506116c883610d05565b92508282019050808211156116e0576116df611683565b5b92915050565b7f54686520646561646c696e652073686f756c642062652061206461746520696e60008201527f20746865206675747572652e0000000000000000000000000000000000000000602082015250565b6000611742602c83610fa5565b915061174d826116e6565b604082019050919050565b6000602082019050818103600083015261177181611735565b9050919050565b60008190508160005260206000209050919050565b60006020601f8301049050919050565b600082821b905092915050565b6000600883026117da7fffffffffffffffffffffffffffffffffffffffffffffffffffffffffffffffff8261179d565b6117e4868361179d565b95508019841693508086168417925050509392505050565b6000819050919050565b600061182161181c61181784610d05565b6117fc565b610d05565b9050919050565b6000819050919050565b61183b83611806565b61184f61184782611828565b8484546117aa565b825550505050565b600090565b611864611857565b61186f818484611832565b505050565b5b818110156118935761188860008261185c565b600181019050611875565b5050565b601f8211156118d8576118a981611778565b6118b28461178d565b810160208510156118c1578190505b6118d56118cd8561178d565b830182611874565b50505b505050565b600082821c905092915050565b60006118fb600019846008026118dd565b1980831691505092915050565b600061191483836118ea565b9150826002028217905092915050565b61192d82610f9a565b67ffffffffffffffff811115611946576119456110e4565b5b611950825461160c565b61195b828285611897565b600060209050601f83116001811461198e576000841561197c578287015190505b6119868582611908565b8655506119ee565b601f19841661199c86611778565b60005b828110156119c45784890151825560018201915060208501945060208101905061199f565b868310156119e157848901516119dd601f8916826118ea565b8355505b6001600288020188555050505b505050505050565b6000611a0182610d05565b91507fffffffffffffffffffffffffffffffffffffffffffffffffffffffffffffffff8203611a3357611a32611683565b5b600182019050919050565b6000611a4982610d05565b9150611a5483610d05565b9250828203905081811115611a6c57611a6b611683565b5b92915050565b600060a082019050611a876000830188610d0f565b611a946020830187610f8b565b8181036040830152611aa68186610ff1565b9050611ab56060830185610d0f565b611ac26080830184610d0f565b9695505050505050565b7f4e487b7100000000000000000000000000000000000000000000000000000000600052603260045260246000fd5b60006040820190508181036000830152611b158185610ff1565b9050611b246020830184610d0f565b9392505050565b7f4e487b7100000000000000000000000000000000000000000000000000000000600052605160045260246000fdfea26469706673582212208e15e3903b7532850d183971e78e77773e38c2a31191e49c48d4d893b9015d3364736f6c634300081b0033",
  "linkReferences": {},
  "deployedLinkReferences": {}
}